:100000000C94F0000C9411010C9411010C9411014A
:100010000C9411010C9411010C9411010C94110118
:100020000C9411010C9411010C9411010C94110108
:100030000C9411010C9411010C9411010C941101F8
:100040000C9411010C9411010C9411010C941101E8
:100050000C9411010C9411010C9411010C941101D8
:100060000C9411010C9411010C9411010C941101C8
:100070000C9411010C9411010C9411010C941101B8
:100080000C9411010C9411010C9411010C941101A8
:100090000C9411010C9411010C9411010C94110198
:1000A0000C9411010C9411010C9411010C94110188
:1000B0000C9411010C9411010C9411010C94110178
:1000C0000C9411010C9411010C9411010C94110168
:1000D0000C9411010C9411010C9411010C94110158
:1000E0000C9411010C9411010C9411010C94110148
:1000F0000C9411010C9411010C9411010C94110138
:100100000C9411010C9411010C9411010C94110127
:100110000C9411010C9411010C9411010C94110117
:100120000C9411010C9411010C9411010C94110107
:100130000C9411010C9411010C9411010C941101F7
:100140000C9411010C9411010C9411010C941101E7
:100150000C9411010C9411010C9411010C941101D7
:100160000C9411010C9411010C9411010C941101C7
:100170000C9411010C9411010C9411010C941101B7
:100180000C9411010C9411010C9411010C941101A7
:100190000C9411010C9411010C9411010C94110197
:1001A0000C9411010C9411010C9411010C94110187
:1001B0000C9411010C9411010C9411010C94110177
:1001C0000C9411010C9411010C94FD030C94130177
:1001D0000C9415010C9411040C9413030C94390322
:1001E00011241FBECFEFCDBFDFE3DEBF00E00CBFA9
:1001F00010E2A0E0B0E2E2E4FCE000E00BBF02C0ED
:1002000007900D92A035B107D9F721E2A0E5B0E241
:1002100001C01D92A235B207E1F70E94FE050C94C1
:100220001F060C94000080E0089580E00895CF93AD
:10023000DF93DC019096FB0150E040E0EC01288167
:1002400030E0042E02C0359527950A94E2F721701C
:1002500021934F5F5F4F4430510581F76C5F7F4FB3
:100260000196A817B90739F7DF91CF910895FC01DE
:10027000DB01AC0140585F4F80818C939181990FD5
:1002800098279C93228184E0289F90011124922733
:100290009C93238188E0289F9001112492279D93AD
:1002A0003496E417F50741F708959C01205E3F4F0F
:1002B000DC01ED91CD011197F0E0E05DFF4D408153
:1002C0004C9382179307A1F70895AC015595479574
:1002D00055954795437055279A01220F331F240FD8
:1002E000351F280F391F75E0220F331F7A95E1F76C
:1002F00020763327AC01E4E055954795EA95E1F780
:10030000440F551F440F551F240F351F8370992725
:10031000820F931F0895CF92DF92EF92FF920F9377
:100320001F93CF93DF93CDB7DEB7DA95CDBFDEBF96
:100330006C01BE016F577F4F0E9417018E010F574E
:100340001F4FF12CE12CC7010E946501F80121919A
:100350008F0141E050E04C0F5D1F840F951FFC01A1
:100360002083FFEFEF1AFF0A40E8E416F10459F783
:10037000B601CE0101960E943701D395CDBFDEBFF5
:10038000DF91CF911F910F91FF90EF90DF90CF9071
:100390000895CF93DF93CDB7DEB7A097CDBFDEBF73
:1003A000FC019E012F5F3F4FA90188E090E0DC0136
:1003B000AF71BB27AE0FBF1F6C91DA016D93AD011A
:1003C00001968832910599F7BF01CF014896D9016E
:1003D0004D919D01DB014D93BD01A817B907B9F7F8
:1003E0008C8D808F898D818F8A8D828F8B8D838F6D
:1003F0004D8D50E08E8D90E09A013595279535957D
:1004000027952370BC01660F771F660F771F6C70EE
:10041000262B248F2F8D30E0959587959595879580
:100420008370B901660F771F660F771F6C70862B7C
:10043000858F98A1892F90E035952795359527953B
:100440002370BC01660F771F660F771F6C70262B19
:10045000268F95958795959587958370440F551FA1
:10046000440F551F4C70842B878FA096CDBFDEBFE5
:10047000DF91CF9108950F931F93CF93DF93CDB763
:10048000DEB7DA95CDBFDEBF8C01CB01BE016F5F59
:100490007F4F0E941701BE016F577F4FC8010E9416
:1004A0001701FE01EF57FF4FDE0111969E012F5FEE
:1004B0003E4F9D918181892781838281DF969C9126
:1004C000DF97892782833496E217F30791F7B80103
:1004D000CE018F579F4F0E943701D395CDBFDEBF0E
:1004E000DF91CF911F910F910895EF92FF921F938B
:1004F000CF93DF93CDB7DEB7C058D109CDBFDEBFF4
:100500007C01162FBE016F5F7F4F0E941701912F54
:1005100091708C8189278C8311FB992790F98885AC
:100520008927888712FB992790F98C8589278C87E2
:1005300013FB992790F988898927888B14FB9927C1
:1005400090F98C8989278C8B15FB112710F9888DE0
:100550001827188FC058DF4F8881C058D04091E0CD
:100560008927C058DF4F8883C058D040B701CE01DB
:1005700001960E943701C058DF4FCDBFDEBFDF912B
:10058000CF911F91FF90EF900895982F9295969597
:100590009770282F22952F70922790959170880F31
:1005A000892B0895AF92BF92CF92DF92EF92FF9284
:1005B0000F931F93CF93DF935C018B016A01D0E00F
:1005C000C0E0F12CEE24E394CA15DB055CF0DF916A
:1005D000CF911F910F91FF90EF90DF90CF90BF9040
:1005E000AF900895C332D10511F4E0920506C80119
:1005F0000E945501C8010E948B018F2D0E94C502E7
:10060000F82E682FC8010E947502B601C8010E9429
:100610003B02C6010E94C901C332D10511F4E09228
:1006200006062196D1CFE2E1F1E29C01205E3F4F28
:10063000DC014D91CD014193A217B307C9F7E0E06A
:10064000F0E2A2E3B1E281918D9380E2E032F8071B
:10065000D1F742E351E262E171E288E290E00E9468
:10066000D20242E151E260E282E70E94CE0380E0E2
:10067000089581E00895FC0180E046EA615008F4A5
:1006800008959191982728E030E097FF07C0990FCF
:10069000942721503109892FC1F7F0CF990FF9CF55
:1006A000DB01FA019F01241B350B281739071CF0C9
:1006B00090E080E008952C9111963C91119760EDA7
:1006C000630F6A3068F4608330ED320F3A30C0F463
:1006D0002295207F3081232B208331961296E2CF02
:1006E0006FEB630F663018F437533083EDCF6FE94B
:1006F000630F663018F081E090E008953755F5CF2C
:100700003FEB320F363040F42753330B64E0220FB7
:10071000331F6A95E1F7DECF3FE9320F363058F7E5
:100720002755330BF3CFA0911021B0911121A032A6
:10073000B105CCF4603C7105B0F496E09A9FF001ED
:100740009B9FF00D1124E05BFF4D808361837283DA
:100750004383548325831196A0931021B0931121D4
:1007600090E080E0089581E090E0089520E00C940E
:10077000930349E353E070E060E086E70E94B6032C
:1007800041E154E070E060E087E70E94B6034DEF7E
:1007900053E070E060E089E70C94B603EF92FF92BB
:1007A0000F931F93CF93DF93062F7A010E94540576
:1007B000E70110E0CE018E199F09801791074CF0D8
:1007C0008AE0DF91CF911F910F91FF90EF900C94F1
:1007D0005405E991E295EF70F0E0E05CFF4D808117
:1007E0000E945405FE013197E081EF70F0E0E05C7B
:1007F000FF4D80810E945405DDCFCF93DF931F9280
:10080000CDB7DEB7809110218983AE014F5F5F4F76
:1008100061E082E70E94CE0380E00F90DF91CF91EC
:100820000895CF93DF93CDB7DEB7C056D109CDBFC2
:10083000DEBF2091102130911121B901772740E0CE
:1008400056E0842F90E0861797078CF0622F660F92
:10085000620FAE014F5F5F4F82E70E94CE0380E0E0
:10086000C05ADF4FCDBFDEBFDF91CF910895FC01AD
:10087000EE0FFF1FE80FF91FA1E0B0E0AC0FBD1FA6
:10088000EA0FFB1F589FD001599FB00D1124A05BA8
:10089000BF4D8C91808311968C9111978183159611
:1008A0008C9182834F5FCDCFAF92BF92CF92DF9278
:1008B000EF92FF920F931F93CF93DF93CDB7DEB7E5
:1008C000C154D240CDBFDEBF0E944D0540911021E2
:1008D0005091112120E530E210E000E004171507E7
:1008E00094F040175107B1F4CF5BDD4FCDBFDEBFB1
:1008F000DF91CF911F910F91FF90EF90DF90CF90FC
:10090000BF90AF9008952A5F3F4FF90136979081CD
:1009100098137EC026E0209FC001219F900D1124D6
:100920009C01205B3F4D6901D90115968C91FE0118
:1009300031967F0180FF20C0CF57DE4F1882C1580B
:10094000D1400E944D0589830E944D058A83AE01E6
:100950004F575E4FB70181E090E00E945003892B12
:1009600019F6CF57DE4F8881C158D14090E0D601AB
:1009700011968D939C931297670126E0209FC001EA
:10098000219F900D1124FC01EF5AFF4D5F01F501ED
:1009900080819181880F991F96012E193F09281790
:1009A0003907C8F10E944D058A3019F08D3009F0E1
:1009B0009BCF26E0209FC001219F900D11248C0128
:1009C000005B1F4DD8011196DC901197AE014F5777
:1009D0005E4FB7018D2D12969C910E945003892B7A
:1009E00009F082CFD8011396ED91FC916D2DCE01C7
:1009F0008F579E4F1995CF5BDD4F8883C154D240EE
:100A0000AE014F5B5D4F61E08AE70E94CE036CCF81
:100A10000F5F1F4F63CF0E944D058A3009F464CFEA
:100A20008D3009F461CFD6018D936D01B0CFE0E434
:100A3000F6E088E0818384E08283E0EAF8E083E006
:100A400085838BE08683178284818061848384819F
:100A5000886084830895CF93DF931F921F92CDB750
:100A6000DEB769837A8330E020E049815A814217FA
:100A7000530711F480E009C04091A10847FF0AC064
:100A80002091A008FC01208381E00F900F90DF915E
:100A9000CF9108952F5F3F4FE8CF8091A10887FF46
:100AA000FCCF8091A00808959091A10895FFFCCFFC
:100AB0008093A0080895FC016083718342831486AB
:100AC0001386168615860895FC0162830895FC013D
:100AD000958526859F5F937081E0921301C080E029
:100AE00008951F93CF93DF93EC01162F0E946705A3
:100AF000882379F09D85FE01E90FF11D17839F5F23
:100B000093709D87E881F98193819C7F2A81922B44
:100B10009383DF91CF911F910895FC0123859485E4
:100B200081E0291301C080E00895FC01A485A80F8D
:100B3000B92FB11D13968C9194859F5F9370948704
:100B40000895FC0183858F5F83702485A081B18126
:100B50009C91821749F0A385AE0FBF2FB11D13964C
:100B60009C93838781E0089580E00895CF93DF937D
:100B7000FC0186859585A081B181981309C01396E3
:100B80008C9113978C7F13968C93DF91CF9108955E
:100B9000C685CE0FDF2FD11D8F818C9386858F5F09
:100BA00083708687F2CFFC01848170FF04C081606E
:100BB0008483608308958E7FFBCFFC01848180FF56
:100BC00004C0808190E091600895808190E0089554
:100BD00010925200109255008091500088608093CE
:100BE00050008091510083FFFCCF88ED84BF83E0EB
:100BF0008093400088E08093500008950E94E805AB
:100C00000E94170581E0809301060E94B90343E129
:100C100051E060E170E08BE60E94B60343E153E0EF
:100C200060E270E080E70E94B60345E151E070E0C9
:100C300060E088E70E94B6030E945404FDCFF89458
:020C4000FFCFE4
:100C4200000102030405060708090A0B0C0D0E0F2A
:100C5200000102030405060708090A0B0C0D0E0F1A
:100C62000D000806020C040B0E07010A03090F050A
:100C7200010A040C060F0309020D0B070500080EFA
:100C820030313233343536373839414243444546C0
:00000001FF
