:100000000C94F0000C9411010C9411010C9411014A
:100010000C9411010C9411010C9411010C94110118
:100020000C9411010C9411010C9411010C94110108
:100030000C9411010C9411010C9411010C941101F8
:100040000C9411010C9411010C9411010C941101E8
:100050000C9411010C9411010C9411010C941101D8
:100060000C9411010C9411010C9411010C941101C8
:100070000C9411010C9411010C9411010C941101B8
:100080000C9411010C9411010C9411010C941101A8
:100090000C9411010C9411010C9411010C94110198
:1000A0000C9411010C9411010C9411010C94110188
:1000B0000C9411010C9411010C9411010C94110178
:1000C0000C9411010C9411010C9411010C94110168
:1000D0000C9411010C9411010C9411010C94110158
:1000E0000C9411010C9411010C9411010C94110148
:1000F0000C9411010C9411010C9411010C94110138
:100100000C9411010C9411010C9411010C94110127
:100110000C9411010C9411010C9411010C94110117
:100120000C9411010C9411010C9411010C94110107
:100130000C9411010C9411010C9411010C941101F7
:100140000C9411010C9411010C9411010C941101E7
:100150000C9411010C9411010C9411010C941101D7
:100160000C9411010C9411010C9411010C941101C7
:100170000C9411010C9411010C9411010C941101B7
:100180000C9411010C9411010C9411010C941101A7
:100190000C9411010C9411010C9411010C94110197
:1001A0000C9411010C9411010C9411010C94110187
:1001B0000C9411010C9411010C9411010C94110177
:1001C0000C9411010C9411010C943C040C94130137
:1001D0000C944E030C9415010C9450040C94780369
:1001E00011241FBECFEFCDBFDFE3DEBF00E00CBFA9
:1001F00011E2A0E0B0E2E0ECFCE000E00BBF02C0E6
:1002000007900D92AE30B107D9F721E2AEE0B1E22E
:1002100001C01D92A03FB207E1F70E943D060C9479
:100220005E060C94000080E0089580E008952F920F
:100230003F924F925F926F927F928F929F92AF9276
:10024000BF92CF92DF92EF92FF920F931F93CF93C3
:10025000DF93CDB7DEB7C654D140CDBFDEBF2A0194
:10026000FB019B01205E3F4FDE01AF5DBE4F419120
:100270004D93E217F307D9F720E0AC01405F5F4FE1
:10028000CF5BDE4F48835983C154D14061E271E0B6
:100290006C0F7D1F605E7F4FCD5BDE4F688379837F
:1002A000C354D140622E712C64147504BCF0CA5B37
:1002B000DE4FCDBFDEBFDF91CF911F910F91FF9039
:1002C000EF90DF90CF90BF90AF909F908F907F90F6
:1002D0006F905F904F903F902F900895273119F4C1
:1002E00071E0709305064C01AC01DA01ED91AD01AE
:1002F0001197F0E0E251FF4D60816C93CF5BDE4FD0
:10030000E880F980C154D1404E155F0571F727315F
:1003100021F4FF24F394F0920606FE01EF53FF4F01
:100320008F01CB5BDE4F88839983C554D140CB5B73
:10033000DE4FA881B981C554D140ED90CB5BDE4F33
:10034000A883B983C554D140F12C580170E060E016
:100350006701062E02C0D594C7940A94E2F73C2D9B
:100360003170D5013D935D016F5F7F4F6430710542
:1003700079F70C5F1F4FCB5BDE4FE880F980C554E7
:10038000D140E416F50699F64EE950E28F01DA0104
:100390006D91AD01D801FD908D01A1E8B0E0AC0FE9
:1003A000BD1FA60FB11DFC92B0E24E3D5B0779F771
:1003B000AE014F575F4F7A01BC01DB011D92BD01B9
:1003C000670110E000E0B12CD6014D916D01002EC7
:1003D00001C0440F0A94EAF7B4260F5F1F4F0430A0
:1003E000110591F7AB0141505109DA01BC92B4E01B
:1003F000EB0EF11CCB5BDE4F48815981C554D140D7
:1004000064177507D1F6BF017C01D7010D917D01FD
:1004100010E05B0150E040E06801042E02C0D5947A
:10042000C7940A94E2F7AC2DA170CA2ED501CD92E3
:100430005D014F5F5F4F4430510571F76C5F7F4F37
:10044000CB5BDE4F48815981C554D140E416F50697
:10045000E1F6AE014F5F5F4F6A018E010F5D1E4FE7
:10046000D8012D908D01312C560170E060E07101B2
:10047000062E02C0F594E7940A94E2F7BE2DB170FF
:10048000EB2ED501ED925D016F5F7F4F64307105FA
:1004900071F7B4E0CB0ED11CCD5BDE4FE880F98064
:1004A000C354D140E016F106D9F68F01005C1F4F0E
:1004B000BF01DA01ED90AD01DB01FC90FE24FC925E
:1004C0001196FC90DA011F96EC90FE24DB01119648
:1004D000FC926C5F7F4F0617170759F7A301405E28
:1004E0005F4DDA014C91642F61705381562753831D
:1004F00041FB552750F967815627578342FB552703
:1005000050F963855627538743FB552750F9678574
:100510005627578744FB552750F963895627538B35
:1005200045FB442740F957894527478B47ADB1E044
:100530004B2747AFD4011D924D018F0170E060E061
:10054000F12CD8014D918D01062E01C0440F0A9463
:10055000EAF7F4266F5F7F4F6430710591F7A401CD
:1005600041505109DA01FC923496CB5BDE4FE880B2
:10057000F980C554D1408E149F04E1F66E0131E03C
:10058000C30ED31E860148E050E0F601BA016F7138
:100590007727A1E2B1E0AC0FBD1F6A0F7B1FDB0123
:1005A0006C91D8016D938D014F5F5F4F48325105BB
:1005B00069F7B601685E7F4FAE014F5D5E4FD601B1
:1005C0001D916D01DA011D93AD016C157D05B9F723
:1005D000438DC75CDE4F4883C953D140408DC65C14
:1005E000DE4F4883CA53D140418DC55CDE4F4883FE
:1005F000CB53D140428DC45CDE4F4883CC53D140B5
:10060000A48DB0E0458D50E0BD0175956795759559
:10061000679563708A01000F111F000F111F0C7086
:10062000602BC35CDE4F6883CD53D140668D70E094
:10063000559547955595479543708B01000F111FB0
:10064000000F111F0C70402BC25CDE4F4883CE534D
:10065000D140478D50E075956795759567956370A6
:10066000FA01EE0FFF1FEE0FFF1FEC706E2BC15C47
:10067000DE4F6883CF53D1405595479555954795A3
:100680004370AA0FBB1FAA0FBB1FAC704A2BC05CE4
:10069000DE4F4883C054D1402F5F04CECF93DF9309
:1006A000C0EED1E29C01205F3F4FFE01DC014D9185
:1006B000CD014193A217B307C9F721E04CE150E007
:1006C00060E070E280EE91E20E941701E0EEF1E25C
:1006D00089918293B1E2E03DFB07D1F740ED51E211
:1006E00060E182E70E940D0480E0DF91CF910895E0
:1006F00081E00895FC0180E046EA615008F4089525
:100700009191982728E030E097FF07C0990F942730
:1007100021503109892FC1F7F0CF990FF9CFDB01B3
:10072000FA019F01241B350B281739071CF090E0B4
:1007300080E008952C9111963C91119760ED630F24
:100740006A3068F4608330ED320F3A30C0F422959D
:10075000207F3081232B208331961296E2CF6FEBDE
:10076000630F663018F437533083EDCF6FE9630FB2
:10077000663018F081E090E008953755F5CF3FEBF3
:10078000320F363040F42753330B64E0220F331F0F
:100790006A95E1F7DECF3FE9320F363058F727553B
:1007A000330BF3CFA091CE21B091CF21A032B10570
:1007B000CCF4603C7105B0F496E09A9FF0019B9FE9
:1007C000F00D1124E25FFE4D8083618372834383C9
:1007D000548325831196A093CE21B093CF2190E02E
:1007E00080E0089581E090E0089520E00C94D20329
:1007F00048E753E070E060E086E70E94F50340E5DB
:1008000054E070E060E087E70E94F5034CE354E0B9
:1008100070E060E089E70C94F503EF92FF920F938C
:100820001F93CF93DF93062F7A010E949305E70170
:1008300010E0CE018E199F09801791074CF08AE0D5
:10084000DF91CF911F910F91FF90EF900C94930542
:10085000E991E295EF70F0E0E250FF4D80810E9457
:100860009305FE013197E081EF70F0E0E250FF4D1B
:1008700080810E949305DDCFCF93DF931F92CDB788
:10088000DEB78091CE218983AE014F5F5F4F61E07B
:1008900082E70E940D0480E00F90DF91CF910895D0
:1008A000CF93DF93CDB7DEB7C056D109CDBFDEBF42
:1008B0002091CE213091CF21B901772740E056E039
:1008C000842F90E0861797078CF0622F660F620FD7
:1008D000AE014F5F5F4F82E70E940D0480E0C05A77
:1008E000DF4FCDBFDEBFDF91CF910895FC01EE0F4A
:1008F000FF1FE80FF91FA1E0B0E0AC0FBD1FEA0F2A
:10090000FB1F589FD001599FB00D1124A25FBE4D0F
:100910008C91808311968C911197818315968C917F
:1009200082834F5FCDCFAF92BF92CF92DF92EF9293
:10093000FF920F931F93CF93DF93CDB7DEB7C154D0
:10094000D240CDBFDEBF0E948C054091CE21509198
:10095000CF212EE031E210E000E00417150794F0FB
:1009600040175107B1F4CF5BDD4FCDBFDEBFDF9144
:10097000CF911F910F91FF90EF90DF90CF90BF909C
:10098000AF9008952A5F3F4FF901369790819813F1
:100990007EC026E0209FC001219F900D11249C0164
:1009A000225F3E4D6901D90115968C91FE01319669
:1009B0007F0180FF20C0CF57DE4F1882C158D14041
:1009C0000E948C0589830E948C058A83AE014F5753
:1009D0005E4FB70181E090E00E948F03892B19F6EA
:1009E000CF57DE4F8881C158D14090E0D601119693
:1009F0008D939C931297670126E0209FC001219F51
:100A0000900D1124FC01E15FFE4D5F01F501808135
:100A10009181880F991F96012E193F0928173907D0
:100A2000C8F10E948C058A3019F08D3009F09BCFF7
:100A300026E0209FC001219F900D11248C01025FB0
:100A40001E4DD8011196DC901197AE014F575E4FA5
:100A5000B7018D2D12969C910E948F03892B09F06E
:100A600082CFD8011396ED91FC916D2DCE018F5759
:100A70009E4F1995CF5BDD4F8883C154D240AE01A4
:100A80004F5B5D4F61E08AE70E940D046CCF0F5F02
:100A90001F4F63CF0E948C058A3009F464CF8D30DC
:100AA00009F461CFD6018D936D01B0CFE0E4F6E09B
:100AB00088E0818384E08283E0EAF8E083E0858354
:100AC0008BE086831782848180618483848188603F
:100AD00084830895CF93DF931F921F92CDB7DEB723
:100AE00069837A8330E020E049815A8142175307B5
:100AF00011F480E009C04091A10847FF0AC020918D
:100B0000A008FC01208381E00F900F90DF91CF912E
:100B100008952F5F3F4FE8CF8091A10887FFFCCF5A
:100B20008091A00808959091A10895FFFCCF809333
:100B3000A0080895FC0160837183428314861386A4
:100B4000168615860895FC0162830895FC0195853B
:100B500026859F5F937081E0921301C080E0089525
:100B60001F93CF93DF93EC01162F0E94A6058823D5
:100B700079F09D85FE01E90FF11D17839F5F93704A
:100B80009D87E881F98193819C7F2A81922B9383B1
:100B9000DF91CF911F910895FC012385948581E019
:100BA000291301C080E00895FC01A485A80FB92F86
:100BB000B11D13968C9194859F5F937094870895CF
:100BC000FC0183858F5F83702485A081B1819C9116
:100BD000821749F0A385AE0FBF2FB11D13969C93CA
:100BE000838781E0089580E00895CF93DF93FC012F
:100BF00086859585A081B181981309C013968C9143
:100C000013978C7F13968C93DF91CF910895C685AF
:100C1000CE0FDF2FD11D8F818C9386858F5F8370E0
:100C20008687F2CFFC01848170FF04C081608483D9
:100C3000608308958E7FFBCFFC01848180FF04C018
:100C4000808190E091600895808190E008951092F5
:100C5000520010925500809150008860809350009F
:100C60008091510083FFFCCF88ED84BF83E08093A7
:100C7000400088E08093500008950E9427060E945B
:100C8000560581E0809301060E94F80343E151E09C
:100C900060E170E08BE60E94F5034EE453E060E112
:100CA00070E080E70E94F50345E151E070E060E00C
:100CB00088E70E94F5030E949304FDCFF894FFCFCC
:100CC0000F0E0D0C0B0A09080706050403020100AC
:100CD0000F0E0D0C0B0A090807060504030201009C
:100CE0000103070F1F3E3D3B372F1E3C3933270EB4
:100CF0001D3A352B162C18302102050B172E1C38E7
:100D00003123060D1B362D1A342912240811220412
:100D10000913260C1932250A152A1428102000055B
:100D20000A0F10151A1F20252A2F30353A3F0C01C3
:100D3000060B1C11161B2C21262B3C31363B080DB3
:100D40000207181D1217282D2227383D32370409B3
:100D50000E0314191E1324292E2334393E33001197
:100D600022333001122320310213102132030415E3
:100D70002637340516272435061714253607081993
:100D80002A3B38091A2B28390A1B18293A0B0C1D43
:100D90002E3F3C0D1E2F2C3D0E1F1C2D3E0F0D0017
:100DA0000806020C040B0E07010A03090F05010ACD
:100DB000040C060F0309020D0B070500080E303165
:0E0DC0003233343536373839414243444546E4
:00000001FF
